:100000001EC036C035C034C033C032C031C030C06D
:100010002FC02EC02DC02CC02BC02AC029C028C084
:1000200027C026C025C024C023C034C04BC036C062
:1000300039C03AC03DC040C043C046C049C0112489
:100040001FBECFEDCDBF10E0A0E6B0E0EEE0F2E0E5
:1000500002C005900D92A236B107D9F720E0A2E6C2
:10006000B0E001C01D92A436B207E1F777D0CDC051
:10007000C7CF12BA8093630090916200982B92BB15
:1000800008951BBA12BA8A30910540F5FC01EB5E67
:10009000FF4F099483E08BBB8AE321C082E08BBBD6
:1000A00086E31DC082E017C081E08BBB8EE017C0E5
:1000B00083E08BBB8CE113C083E08BBB8CE30FC070
:1000C00082E08BBB8AE00BC083E08BBB8EE307C072
:1000D00012BA1BBA83E08BBB8EE101C084E080932F
:1000E00062008091630090916200892B82BB089529
:1000F00083E08BBB8ABB8FEF82BB81BB17BA88BB07
:10010000089526B330E0082E02C0359527950A944D
:10011000E2F720FF03C080E090E00895E7E8F3E114
:100120003197F1F700C0000026B330E0082E02C07E
:10013000359527950A94E2F720FDEDCF21E030E0D8
:1001400002C0220F331F8A95E2F786B390E0822324
:100150009323892BD1F381E090E00895C9DF80914A
:100160006000909161008DDF80E090E0CADF019730
:1001700029F5C0916000D09161001C161D06A4F7FE
:10018000CE017FDF80E475DF2FE986E891E0215022
:1001900080409040E1F700C0000080E06ADF2FE37C
:1001A0008DE093E0215080409040E1F700C00000D6
:1001B000D0936100C09360002197DFCF81E090E091
:1001C000A0DF019761F4809160009091610081301F
:1001D000910519F481E090E0C6CF019711C082E04B
:1001E00090E08FDF019709F0BFCF80916000909180
:1001F00061008930910519F489E090E0B4CF01964F
:0E0200009093610080936000AECFF894FFCF22
:02020E000100ED
:00000001FF
